{
  "contractName": "decentraldl",
  "abi": [
    {
      "inputs": [
        {
          "internalType": "int256",
          "name": "i",
          "type": "int256"
        },
        {
          "internalType": "int256",
          "name": "j",
          "type": "int256"
        },
        {
          "internalType": "int256",
          "name": "val",
          "type": "int256"
        }
      ],
      "name": "storeInitialWeights",
      "outputs": [],
      "stateMutability": "nonpayable",
      "type": "function"
    },
    {
      "inputs": [
        {
          "internalType": "uint256",
          "name": "i",
          "type": "uint256"
        }
      ],
      "name": "returnInitialWeights",
      "outputs": [
        {
          "internalType": "int256[1024]",
          "name": "",
          "type": "int256[1024]"
        }
      ],
      "stateMutability": "view",
      "type": "function",
      "constant": true
    },
    {
      "inputs": [
        {
          "internalType": "int256",
          "name": "i",
          "type": "int256"
        },
        {
          "internalType": "int256",
          "name": "val",
          "type": "int256"
        }
      ],
      "name": "storeNormalizedWeights",
      "outputs": [],
      "stateMutability": "nonpayable",
      "type": "function"
    },
    {
      "inputs": [],
      "name": "returnNormalizedWeights",
      "outputs": [
        {
          "internalType": "int256[1024]",
          "name": "",
          "type": "int256[1024]"
        }
      ],
      "stateMutability": "view",
      "type": "function",
      "constant": true
    },
    {
      "inputs": [
        {
          "internalType": "int256",
          "name": "val",
          "type": "int256"
        }
      ],
      "name": "addSamples",
      "outputs": [],
      "stateMutability": "nonpayable",
      "type": "function"
    },
    {
      "inputs": [],
      "name": "returnSamples",
      "outputs": [
        {
          "internalType": "int256",
          "name": "",
          "type": "int256"
        }
      ],
      "stateMutability": "view",
      "type": "function",
      "constant": true
    },
    {
      "inputs": [],
      "name": "restartNsamples",
      "outputs": [],
      "stateMutability": "nonpayable",
      "type": "function"
    },
    {
      "inputs": [
        {
          "internalType": "int256",
          "name": "i",
          "type": "int256"
        },
        {
          "internalType": "int256",
          "name": "val",
          "type": "int256"
        }
      ],
      "name": "storeBias",
      "outputs": [],
      "stateMutability": "nonpayable",
      "type": "function"
    },
    {
      "inputs": [
        {
          "internalType": "int256",
          "name": "i",
          "type": "int256"
        },
        {
          "internalType": "int256",
          "name": "val",
          "type": "int256"
        }
      ],
      "name": "storeBeta",
      "outputs": [],
      "stateMutability": "nonpayable",
      "type": "function"
    },
    {
      "inputs": [],
      "name": "returnBias",
      "outputs": [
        {
          "internalType": "int256[1]",
          "name": "",
          "type": "int256[1]"
        }
      ],
      "stateMutability": "view",
      "type": "function",
      "constant": true
    },
    {
      "inputs": [],
      "name": "returnBeta",
      "outputs": [
        {
          "internalType": "int256[1024]",
          "name": "",
          "type": "int256[1024]"
        }
      ],
      "stateMutability": "view",
      "type": "function",
      "constant": true
    },
    {
      "inputs": [
        {
          "internalType": "int256",
          "name": "i",
          "type": "int256"
        },
        {
          "internalType": "int256",
          "name": "j",
          "type": "int256"
        }
      ],
      "name": "resetWeights",
      "outputs": [],
      "stateMutability": "nonpayable",
      "type": "function"
    },
    {
      "inputs": [
        {
          "internalType": "int256",
          "name": "m",
          "type": "int256"
        }
      ],
      "name": "resetBias",
      "outputs": [],
      "stateMutability": "nonpayable",
      "type": "function"
    },
    {
      "inputs": [
        {
          "internalType": "uint256",
          "name": "n",
          "type": "uint256"
        }
      ],
      "name": "resetNormalizedweights",
      "outputs": [],
      "stateMutability": "nonpayable",
      "type": "function"
    },
    {
      "inputs": [
        {
          "internalType": "int256",
          "name": "p",
          "type": "int256"
        }
      ],
      "name": "resetBeta",
      "outputs": [],
      "stateMutability": "nonpayable",
      "type": "function"
    },
    {
      "inputs": [
        {
          "internalType": "int256",
          "name": "i",
          "type": "int256"
        },
        {
          "internalType": "int256",
          "name": "j",
          "type": "int256"
        },
        {
          "internalType": "int256",
          "name": "val",
          "type": "int256"
        }
      ],
      "name": "updateAddWeights",
      "outputs": [],
      "stateMutability": "nonpayable",
      "type": "function"
    },
    {
      "inputs": [
        {
          "internalType": "int256",
          "name": "i",
          "type": "int256"
        },
        {
          "internalType": "int256",
          "name": "val",
          "type": "int256"
        }
      ],
      "name": "updateAddNormalizedWeights",
      "outputs": [],
      "stateMutability": "nonpayable",
      "type": "function"
    },
    {
      "inputs": [
        {
          "internalType": "int256",
          "name": "i",
          "type": "int256"
        },
        {
          "internalType": "int256",
          "name": "val",
          "type": "int256"
        }
      ],
      "name": "updateAddBeta",
      "outputs": [],
      "stateMutability": "nonpayable",
      "type": "function"
    },
    {
      "inputs": [
        {
          "internalType": "int256",
          "name": "i",
          "type": "int256"
        },
        {
          "internalType": "int256",
          "name": "val",
          "type": "int256"
        }
      ],
      "name": "updateAddBias",
      "outputs": [],
      "stateMutability": "nonpayable",
      "type": "function"
    },
    {
      "inputs": [
        {
          "internalType": "int256",
          "name": "i",
          "type": "int256"
        }
      ],
      "name": "averageBias",
      "outputs": [],
      "stateMutability": "nonpayable",
      "type": "function"
    },
    {
      "inputs": [
        {
          "internalType": "int256",
          "name": "i",
          "type": "int256"
        }
      ],
      "name": "averageBeta",
      "outputs": [],
      "stateMutability": "nonpayable",
      "type": "function"
    },
    {
      "inputs": [
        {
          "internalType": "int256",
          "name": "i",
          "type": "int256"
        },
        {
          "internalType": "int256",
          "name": "j",
          "type": "int256"
        }
      ],
      "name": "averageWeights",
      "outputs": [],
      "stateMutability": "nonpayable",
      "type": "function"
    },
    {
      "inputs": [
        {
          "internalType": "int256",
          "name": "i",
          "type": "int256"
        }
      ],
      "name": "averageNormalizedWeights",
      "outputs": [],
      "stateMutability": "nonpayable",
      "type": "function"
    },
    {
      "inputs": [
        {
          "internalType": "int256",
          "name": "i",
          "type": "int256"
        },
        {
          "internalType": "int256",
          "name": "j",
          "type": "int256"
        },
        {
          "internalType": "int256",
          "name": "val",
          "type": "int256"
        }
      ],
      "name": "storeresNetWeight",
      "outputs": [],
      "stateMutability": "nonpayable",
      "type": "function"
    }
  ],
  "bytecode": "0x60806040526000805560006104025560006124055534801561002057600080fd5b50610ed5806100306000396000f3fe608060405234801561001057600080fd5b50600436106101585760003560e01c80636e59f0d8116100c3578063a9e3e9101161007c578063a9e3e9101461036f578063b7d0b6e21461038b578063c674c08a146103a9578063f3bc669a146103b3578063f41248c4146103cf578063f528f556146103eb57610158565b80636e59f0d8146102c5578063763d4227146102e1578063811dbbc3146102fd578063864527871461031957806398027f2314610335578063a728c9931461035157610158565b80635010f075116101155780635010f0751461020757806351bc14371461022357806360b09fb41461023f5780636140f8e71461025b578063655d9b6114610279578063687d23e21461029557610158565b806302e7514d1461015d57806303a0422d14610179578063040bf5621461019557806305b09e6b146101b157806314e5d6db146101cd578063354387c1146101eb575b600080fd5b61017760048036038101906101729190610a60565b610407565b005b610193600480360381019061018e9190610a60565b61044f565b005b6101af60048036038101906101aa9190610a60565b610474565b005b6101cb60048036038101906101c69190610aa0565b6104b8565b005b6101d56104de565b6040516101e29190610adc565b60405180910390f35b61020560048036038101906102009190610aa0565b6104e9565b005b610221600480360381019061021c9190610aa0565b610533565b005b61023d60048036038101906102389190610aa0565b61057d565b005b61025960048036038101906102549190610aa0565b6105a2565b005b6102636105ea565b6040516102709190610ba2565b60405180910390f35b610293600480360381019061028e9190610a60565b610636565b005b6102af60048036038101906102aa9190610bf3565b61067e565b6040516102bc9190610ca5565b60405180910390f35b6102df60048036038101906102da9190610cc1565b6106e4565b005b6102fb60048036038101906102f69190610cc1565b610727565b005b61031760048036038101906103129190610a60565b61076c565b005b610333600480360381019061032e9190610aa0565b6107ea565b005b61034f600480360381019061034a9190610bf3565b610803565b005b610359610829565b6040516103669190610ca5565b60405180910390f35b61038960048036038101906103849190610a60565b610877565b005b6103936108bd565b6040516103a09190610ca5565b60405180910390f35b6103b161090b565b005b6103cd60048036038101906103c89190610a60565b610916565b005b6103e960048036038101906103e49190610a60565b61093c565b005b61040560048036038101906104009190610cc1565b610962565b005b60008290508161100482610400811061042357610422610d14565b5b015461042f9190610d72565b61100482610400811061044557610444610d14565b5b0181905550505050565b600082905081610401826001811061046a57610469610d14565b5b0181905550505050565b600082905060008290506000610c03836001811061049557610494610d14565b5b61040002018261040081106104ad576104ac610d14565b5b018190555050505050565b600081905060006114048261040081106104d5576104d4610d14565b5b01819055505050565b600061240554905090565b60008190506124055461140482610400811061050857610507610d14565b5b01546105149190610e35565b61080382610400811061052a57610529610d14565b5b01819055505050565b60008190506124055461100482610400811061055257610551610d14565b5b015461055e9190610e35565b61040382610400811061057457610573610d14565b5b01819055505050565b60008190506000611003826001811061059957610598610d14565b5b01819055505050565b60008190506124055461100382600181106105c0576105bf610d14565b5b01546105cc9190610e35565b61040182600181106105e1576105e0610d14565b5b01819055505050565b6105f26109df565b61040160018060200260405190810160405280929190826001801561062c576020028201915b815481526020019060010190808311610618575b5050505050905090565b60008290508161140482610400811061065257610651610d14565b5b015461065e9190610d72565b61140482610400811061067457610673610d14565b5b0181905550505050565b610686610a01565b6001826001811061069a57610699610d14565b5b610400020161040080602002604051908101604052809291908261040080156106d8576020028201915b8154815260200190600101908083116106c4575b50505050509050919050565b60008390506000839050826001836001811061070357610702610d14565b5b610400020182610400811061071b5761071a610d14565b5b01819055505050505050565b6000839050600083905082612406836103e8811061074857610747610d14565b5b61080002018261080081106107605761075f610d14565b5b01819055505050505050565b6000829050600082905061240554610c03836001811061078f5761078e610d14565b5b61040002018261040081106107a7576107a6610d14565b5b01546107b39190610e35565b600183600181106107c7576107c6610d14565b5b61040002018261040081106107df576107de610d14565b5b018190555050505050565b80612405546107f99190610d72565b6124058190555050565b600081905060006110048261040081106108205761081f610d14565b5b01819055505050565b610831610a01565b610403610400806020026040519081016040528092919082610400801561086d576020028201915b815481526020019060010190808311610859575b5050505050905090565b600082905081611003826001811061089257610891610d14565b5b015461089e9190610d72565b61100382600181106108b3576108b2610d14565b5b0181905550505050565b6108c5610a01565b6108036104008060200260405190810160405280929190826104008015610901576020028201915b8154815260200190600101908083116108ed575b5050505050905090565b600061240581905550565b60008290508161080382610400811061093257610931610d14565b5b0181905550505050565b60008290508161040382610400811061095857610957610d14565b5b0181905550505050565b6000839050600083905082610c03836001811061098257610981610d14565b5b610400020182610400811061099a57610999610d14565b5b01546109a69190610d72565b610c0383600181106109bb576109ba610d14565b5b61040002018261040081106109d3576109d2610d14565b5b01819055505050505050565b6040518060200160405280600190602082028036833780820191505090505090565b60405180618000016040528061040090602082028036833780820191505090505090565b600080fd5b6000819050919050565b610a3d81610a2a565b8114610a4857600080fd5b50565b600081359050610a5a81610a34565b92915050565b60008060408385031215610a7757610a76610a25565b5b6000610a8585828601610a4b565b9250506020610a9685828601610a4b565b9150509250929050565b600060208284031215610ab657610ab5610a25565b5b6000610ac484828501610a4b565b91505092915050565b610ad681610a2a565b82525050565b6000602082019050610af16000830184610acd565b92915050565b600060019050919050565b600081905092915050565b6000819050919050565b610b2081610a2a565b82525050565b6000610b328383610b17565b60208301905092915050565b6000602082019050919050565b610b5481610af7565b610b5e8184610b02565b9250610b6982610b0d565b8060005b83811015610b9a578151610b818782610b26565b9650610b8c83610b3e565b925050600181019050610b6d565b505050505050565b6000602082019050610bb76000830184610b4b565b92915050565b6000819050919050565b610bd081610bbd565b8114610bdb57600080fd5b50565b600081359050610bed81610bc7565b92915050565b600060208284031215610c0957610c08610a25565b5b6000610c1784828501610bde565b91505092915050565b60006104009050919050565b600081905092915050565b6000819050919050565b6000602082019050919050565b610c5781610c20565b610c618184610c2c565b9250610c6c82610c37565b8060005b83811015610c9d578151610c848782610b26565b9650610c8f83610c41565b925050600181019050610c70565b505050505050565b600061800082019050610cbb6000830184610c4e565b92915050565b600080600060608486031215610cda57610cd9610a25565b5b6000610ce886828701610a4b565b9350506020610cf986828701610a4b565b9250506040610d0a86828701610a4b565b9150509250925092565b7f4e487b7100000000000000000000000000000000000000000000000000000000600052603260045260246000fd5b7f4e487b7100000000000000000000000000000000000000000000000000000000600052601160045260246000fd5b6000610d7d82610a2a565b9150610d8883610a2a565b9250817f7fffffffffffffffffffffffffffffffffffffffffffffffffffffffffffffff03831360008312151615610dc357610dc2610d43565b5b817f8000000000000000000000000000000000000000000000000000000000000000038312600083121615610dfb57610dfa610d43565b5b828201905092915050565b7f4e487b7100000000000000000000000000000000000000000000000000000000600052601260045260246000fd5b6000610e4082610a2a565b9150610e4b83610a2a565b925082610e5b57610e5a610e06565b5b600160000383147f800000000000000000000000000000000000000000000000000000000000000083141615610e9457610e93610d43565b5b82820590509291505056fea26469706673582212201b8453fbb2c9cc43182b180d21c39e54710fe987bed3535715a139a2fc01399b64736f6c634300080b0033",
  "immutableReferences": {},
  "source": "// SPDX-License-Identifier: MIT\npragma solidity ^0.8.11;\n\n// We save the following things in the smart contract\ncontract decentraldl{\n    uint sumOfNum = 0;\n    int [1024][1] weights; // The load state dictionary has inverted shape\n    int [1] bias;\n    int totalNumberOfImages = 0;\n    int [1024] normalizedWeights;\n    int [1024] beta;\n\n    int [1024][1] addWeights;\n    int [1] addBias;\n    int [1024] addNormalizedWeights;\n    int [1024] addBeta;\n    // copy original weights to be downloaded initially by users\n    int [1024][1] Originalweights; // remove\n    int [1024] OriginalnormalizedWeights; // remove\n    int [1] OriginalBias; // remove\n    int [1024] OriginalBeta; // re,ove\n\n   // functions for the new paper\n   /*\n   function storeLargerNumbers(uint num) public{\n       sumOfNum = sumOfNum + num;\n       //return (sum);\n\n   }\n   \n   function returnNumber() public view returns(uint){\n       return sumOfNum ;\n   }\n   */\n   // function to get initial weights from hospital and store them\n   function storeInitialWeights(int i,int j,int val) public{\n       uint m = uint(i);\n       uint n = uint(j);\n       weights[m][n] = val;\n\n   }\n    /*\n    function copyOriginalWeights(int i, int j) public{\n        uint p = uint(i);\n        uint q = uint(j);\n        Originalweights[p][q] = weights[p][q];\n    }\n    */\n\n   function returnInitialWeights(uint i) public view returns(int[1024] memory){\n       return weights[i];\n   }\n   /*\n   function returnOriginalWeights(uint i) public view returns(int[1024] memory){\n       return Originalweights[i];\n   }\n   */\n   /*\n   function updateWeights(int i, int j, int val) public{\n       uint k = uint(i);\n       uint l = uint(j);\n       weights[k][l] = weights[k][l] + val;\n   }*/\n   // function update local weights\n   //function divide weights by total number of images\n   function storeNormalizedWeights(int i, int val) public{\n       uint p = uint(i);\n       normalizedWeights[p] = val;\n   }\n   function returnNormalizedWeights() public view returns (int[1024] memory){\n       return normalizedWeights;\n   }\n   /*\n   function copyOriginalNormalizedWeights(int i) public{\n       uint p = uint(i);\n       OriginalnormalizedWeights[p] = normalizedWeights[p];\n   }\n   function returnOriginalNormalizedWeights() public view returns (int[1024] memory){\n       return OriginalnormalizedWeights;\n   }\n   function updateNormalizedWeights(int i, int val) public{\n       uint r = uint (i);\n       normalizedWeights[r] = normalizedWeights[r]+val;\n   }*/\n    int total_samples = 0;\n   // functions to average out the weights\n   // function to add total number of samples - also after every epoch - these need to be updated to 0\n   function addSamples(int val) public{\n       total_samples = total_samples + val;\n   }\n   function returnSamples() public view returns(int){\n       return total_samples;\n   }\n   // function to divide weights\n   \n   function restartNsamples() public {\n       total_samples = 0;\n   }\n\n// store bias\n// copy bias\n// return bias\n// return copied bias\n// update bias\n// average out the bias\n\n    function storeBias(int i, int val) public{\n       uint p = uint(i);\n       bias[p] = val;\n   }\n   function storeBeta(int i, int val) public{\n       uint p = uint(i);\n       beta[p] = val;\n   }\n\n   function returnBias() public view returns (int[1] memory){\n       return bias;\n   }\n   function returnBeta() public view returns (int[1024] memory){\n       return beta;\n   }\n   /*\n   function copyOriginalBias(int i) public{\n       uint p = uint(i);\n       OriginalBias[p] = bias[p];\n   }\n   function copyOriginalBeta(int i) public{\n       uint p = uint(i);\n       OriginalBeta[p] = beta[p];\n   }\n   function returnOriginalBias() public view returns (int[7] memory){\n       return OriginalBias;\n   }\n   function returnOriginalBeta() public view returns (int[1024] memory){\n       return OriginalBeta;\n   }\n   function updateBias(int i, int val) public{\n       uint r = uint (i);\n       bias[r] = bias[r]+val;\n   }\n   function updateBeta(int i, int val) public{\n       uint r = uint (i);\n       beta[r] = beta[r]+val;\n   }\n   */\n\n    /// functions with new and proper logic\n\n    function resetWeights(int i, int j) public{\n        uint k = uint(i);\n        uint m = uint(j);\n                addWeights[k][m] =0;\n            \n        \n    }\n    function resetBias(int m) public{\n        uint i = uint(m);\n            addBias[i] = 0;\n        \n    }\n    function resetNormalizedweights(uint n) public{\n       uint j = uint(n);\n            addNormalizedWeights[j] =0;\n\n    \n\n    }\n    function resetBeta(int p) public{\n       uint j = uint(p);\n  \n            addBeta[j] =0;\n        \n        \n    }\n    function updateAddWeights(int i, int j, int val) public{\n        uint m = uint(i);\n        uint n = uint(j);\n        addWeights[m][n] = addWeights[m][n] + val;\n\n    }\n    function updateAddNormalizedWeights(int i, int val) public{\n        uint n = uint(i);\n        addNormalizedWeights[n] = addNormalizedWeights[n] + val;\n    }\n    function updateAddBeta(int i, int val) public{\n             uint r = uint (i);\n       addBeta[r] = addBeta[r]+val;\n    }\n    function updateAddBias(int i, int val) public{\n             uint r = uint (i);\n       addBias[r] = addBias[r]+val;\n    }\n\n    /// Average out the weights\n    function averageBias(int i) public{\n       uint p = uint(i);\n       //bias[p] = ((bias[p]*total_samples)+addBias[p])/total_samples;\n       bias[p] = addBias[p]/total_samples;\n   }\n   function averageBeta(int i) public{\n       uint p = uint(i);\n       //beta[p] = ((beta[p]*total_samples)+addBeta[p])/total_samples;\n       beta[p] = addBeta[p]/total_samples;\n   }\n\n   function averageWeights(int i,int j) public {\n       uint x = uint(i);\n       uint y = uint(j);\n       //weights[x][y] = weights[x][y]/total_samples;\n       weights[x][y] = addWeights[x][y]/total_samples;\n       //weights[x][y] = ((weights[x][y]*total_samples)+addWeights[x][y])/total_samples;\n   }\n\n   // function to divide normalized weights\n     function averageNormalizedWeights(int i) public{\n       uint p = uint(i);\n       //normalizedWeights[p] = normalizedWeights[p]/total_samples;\n       normalizedWeights[p] = addNormalizedWeights[p]/total_samples;\n       //normalizedWeights[p] = ((normalizedWeights[p]*total_samples)+addNormalizedWeights[p])/total_samples;\n   }\n   int [2048][1000] resnetweights; // The load state dictionary has inverted shape\n    function storeresNetWeight(int i, int j, int val)public{\n\n        uint m = uint(i);\n        uint n = uint(j);\n        resnetweights[m][n] =  val;\n\n    \n\n    }\n\n    \n \n}\n\n\n\n",
  "sourcePath": "/Users/garimaaggarwal/Documents/Blockchainprojects/decentralizeddl/contracts/decentraldl.sol",
  "compiler": {
    "name": "solc",
    "version": "0.8.11+commit.d7f03943.Emscripten.clang"
  },
  "schemaVersion": "3.4.4",
  "updatedAt": "2022-06-25T19:41:34.097Z",
  "networkType": "ethereum",
  "devdoc": {
    "kind": "dev",
    "methods": {},
    "version": 1
  },
  "userdoc": {
    "kind": "user",
    "methods": {
      "averageBias(int256)": {
        "notice": "Average out the weights"
      },
      "resetWeights(int256,int256)": {
        "notice": "functions with new and proper logic"
      }
    },
    "version": 1
  }
}